{"abi":[{"type":"constructor","inputs":[{"name":"tokenAddresses","type":"address[]","internalType":"address[]"},{"name":"priceFeedAddresses","type":"address[]","internalType":"address[]"},{"name":"dscAddress","type":"address","internalType":"address"}],"stateMutability":"nonpayable"},{"type":"function","name":"burnDsc","inputs":[],"outputs":[],"stateMutability":"nonpayable"},{"type":"function","name":"depositCollateral","inputs":[{"name":"tokenCollateralAddress","type":"address","internalType":"address"},{"name":"amountCollateral","type":"uint256","internalType":"uint256"}],"outputs":[],"stateMutability":"nonpayable"},{"type":"function","name":"depositCollateralAndMintDsc","inputs":[],"outputs":[],"stateMutability":"nonpayable"},{"type":"function","name":"getAccountCollateralValue","inputs":[{"name":"user","type":"address","internalType":"address"}],"outputs":[{"name":"totalCollateralValueInUsd","type":"uint256","internalType":"uint256"}],"stateMutability":"view"},{"type":"function","name":"getUsdValue","inputs":[{"name":"token","type":"address","internalType":"address"},{"name":"amount","type":"uint256","internalType":"uint256"}],"outputs":[{"name":"","type":"uint256","internalType":"uint256"}],"stateMutability":"view"},{"type":"function","name":"healthFactor","inputs":[],"outputs":[],"stateMutability":"view"},{"type":"function","name":"liquidate","inputs":[],"outputs":[],"stateMutability":"nonpayable"},{"type":"function","name":"mintDsc","inputs":[{"name":"amountDscToMint","type":"uint256","internalType":"uint256"}],"outputs":[],"stateMutability":"nonpayable"},{"type":"function","name":"redeemCollateral","inputs":[],"outputs":[],"stateMutability":"nonpayable"},{"type":"function","name":"redeemCollateralForDsc","inputs":[],"outputs":[],"stateMutability":"nonpayable"},{"type":"event","name":"CollateralDeposited","inputs":[{"name":"user","type":"address","indexed":true,"internalType":"address"},{"name":"token","type":"address","indexed":true,"internalType":"address"},{"name":"amount","type":"uint256","indexed":true,"internalType":"uint256"}],"anonymous":false},{"type":"error","name":"DSCEngine__BreaksHealthFactor","inputs":[{"name":"healthFactor","type":"uint256","internalType":"uint256"}]},{"type":"error","name":"DSCEngine__MintFailed","inputs":[]},{"type":"error","name":"DSCEngine__NeedsMoreThanZero","inputs":[]},{"type":"error","name":"DSCEngine__NotAllowedToken","inputs":[{"name":"token","type":"address","internalType":"address"}]},{"type":"error","name":"DSCEngine__TokenAddressAndPriceFeedAddressesMustBeSameLength","inputs":[]},{"type":"error","name":"DSCEngine__TransferFailed","inputs":[]}],"bytecode":{"object":"0x60a060405234801561000f575f5ffd5b5060405161129c38038061129c833981810160405281019061003191906103af565b60015f819055508151835114610073576040517fc72d4a5100000000000000000000000000000000000000000000000000000000815260040160405180910390fd5b5f5f90505b83518110156101b75782818151811061009457610093610437565b5b602002602001015160015f8684815181106100b2576100b1610437565b5b602002602001015173ffffffffffffffffffffffffffffffffffffffff1673ffffffffffffffffffffffffffffffffffffffff1681526020019081526020015f205f6101000a81548173ffffffffffffffffffffffffffffffffffffffff021916908373ffffffffffffffffffffffffffffffffffffffff160217905550600484828151811061014557610144610437565b5b6020026020010151908060018154018082558091505060019003905f5260205f20015f9091909190916101000a81548173ffffffffffffffffffffffffffffffffffffffff021916908373ffffffffffffffffffffffffffffffffffffffff1602179055508080600101915050610078565b508073ffffffffffffffffffffffffffffffffffffffff1660808173ffffffffffffffffffffffffffffffffffffffff1681525050505050610464565b5f604051905090565b5f5ffd5b5f5ffd5b5f5ffd5b5f601f19601f8301169050919050565b7f4e487b71000000000000000000000000000000000000000000000000000000005f52604160045260245ffd5b61024f82610209565b810181811067ffffffffffffffff8211171561026e5761026d610219565b5b80604052505050565b5f6102806101f4565b905061028c8282610246565b919050565b5f67ffffffffffffffff8211156102ab576102aa610219565b5b602082029050602081019050919050565b5f5ffd5b5f73ffffffffffffffffffffffffffffffffffffffff82169050919050565b5f6102e9826102c0565b9050919050565b6102f9816102df565b8114610303575f5ffd5b50565b5f81519050610314816102f0565b92915050565b5f61032c61032784610291565b610277565b9050808382526020820190506020840283018581111561034f5761034e6102bc565b5b835b8181101561037857806103648882610306565b845260208401935050602081019050610351565b5050509392505050565b5f82601f83011261039657610395610205565b5b81516103a684826020860161031a565b91505092915050565b5f5f5f606084860312156103c6576103c56101fd565b5b5f84015167ffffffffffffffff8111156103e3576103e2610201565b5b6103ef86828701610382565b935050602084015167ffffffffffffffff8111156104105761040f610201565b5b61041c86828701610382565b925050604061042d86828701610306565b9150509250925092565b7f4e487b71000000000000000000000000000000000000000000000000000000005f52603260045260245ffd5b608051610e2061047c5f395f6106e50152610e205ff3fe608060405234801561000f575f5ffd5b506004361061009c575f3560e01c8063a5d5db0c11610064578063a5d5db0c146100f8578063a653447014610114578063c660d1121461011e578063c9b7c3271461014e578063ffde1fba1461016a5761009c565b80631e2e15e4146100a057806322841f01146100aa57806328a07025146100b45780637d1a4450146100be5780639e297554146100ee575b5f5ffd5b6100a8610174565b005b6100b2610176565b005b6100bc610178565b005b6100d860048036038101906100d39190610977565b61017a565b6040516100e591906109ba565b60405180910390f35b6100f6610274565b005b610112600480360381019061010d91906109fd565b610276565b005b61011c610534565b005b610138600480360381019061013391906109fd565b610536565b60405161014591906109ba565b60405180910390f35b61016860048036038101906101639190610a3b565b610644565b005b6101726107c4565b005b565b565b565b5f5f5f90505b60048054905081101561026e575f600482815481106101a2576101a1610a66565b5b905f5260205f20015f9054906101000a900473ffffffffffffffffffffffffffffffffffffffff1690505f60025f8673ffffffffffffffffffffffffffffffffffffffff1673ffffffffffffffffffffffffffffffffffffffff1681526020019081526020015f205f8373ffffffffffffffffffffffffffffffffffffffff1673ffffffffffffffffffffffffffffffffffffffff1681526020019081526020015f205490506102528282610536565b8461025d9190610ac0565b935050508080600101915050610180565b50919050565b565b805f81036102b0576040517fcb1d3f7d00000000000000000000000000000000000000000000000000000000815260040160405180910390fd5b6102b86107c6565b825f73ffffffffffffffffffffffffffffffffffffffff1660015f8373ffffffffffffffffffffffffffffffffffffffff1673ffffffffffffffffffffffffffffffffffffffff1681526020019081526020015f205f9054906101000a900473ffffffffffffffffffffffffffffffffffffffff1673ffffffffffffffffffffffffffffffffffffffff160361038557806040517f22b2724800000000000000000000000000000000000000000000000000000000815260040161037c9190610b02565b60405180910390fd5b8260025f3373ffffffffffffffffffffffffffffffffffffffff1673ffffffffffffffffffffffffffffffffffffffff1681526020019081526020015f205f8673ffffffffffffffffffffffffffffffffffffffff1673ffffffffffffffffffffffffffffffffffffffff1681526020019081526020015f205f82825461040c9190610ac0565b92505081905550828473ffffffffffffffffffffffffffffffffffffffff163373ffffffffffffffffffffffffffffffffffffffff167ff1c0dd7e9b98bbff859029005ef89b127af049cd18df1a8d79f0b7e019911e5660405160405180910390a45f8473ffffffffffffffffffffffffffffffffffffffff166323b872dd3330876040518463ffffffff1660e01b81526004016104ac93929190610b1b565b6020604051808303815f875af11580156104c8573d5f5f3e3d5ffd5b505050506040513d601f19601f820116820180604052508101906104ec9190610b85565b905080610525576040517f4dc34d1700000000000000000000000000000000000000000000000000000000815260040160405180910390fd5b505061052f610813565b505050565b565b5f5f60015f8573ffffffffffffffffffffffffffffffffffffffff1673ffffffffffffffffffffffffffffffffffffffff1681526020019081526020015f205f9054906101000a900473ffffffffffffffffffffffffffffffffffffffff1690505f8173ffffffffffffffffffffffffffffffffffffffff1663feaf968c6040518163ffffffff1660e01b815260040160a060405180830381865afa1580156105e1573d5f5f3e3d5ffd5b505050506040513d601f19601f820116820180604052508101906106059190610c36565b505050915050670de0b6b3a7640000846402540be400836106269190610cad565b6106309190610cad565b61063a9190610d1b565b9250505092915050565b805f810361067e576040517fcb1d3f7d00000000000000000000000000000000000000000000000000000000815260040160405180910390fd5b6106866107c6565b8160035f3373ffffffffffffffffffffffffffffffffffffffff1673ffffffffffffffffffffffffffffffffffffffff1681526020019081526020015f205f8282546106d29190610ac0565b925050819055506106e23361081c565b5f7f000000000000000000000000000000000000000000000000000000000000000073ffffffffffffffffffffffffffffffffffffffff166340c10f1933856040518363ffffffff1660e01b815260040161073e929190610d4b565b6020604051808303815f875af115801561075a573d5f5f3e3d5ffd5b505050506040513d601f19601f8201168201806040525081019061077e9190610b85565b9050806107b7576040517f30eb0fc900000000000000000000000000000000000000000000000000000000815260040160405180910390fd5b506107c0610813565b5050565b565b60025f540361080a576040517f08c379a000000000000000000000000000000000000000000000000000000000815260040161080190610dcc565b60405180910390fd5b60025f81905550565b60015f81905550565b5f61082682610872565b9050600181101561086e57806040517fe580cc6100000000000000000000000000000000000000000000000000000000815260040161086591906109ba565b60405180910390fd5b5050565b5f5f5f61087e846108c7565b915091505f60646032836108929190610cad565b61089c9190610d1b565b905082670de0b6b3a7640000826108b39190610cad565b6108bd9190610d1b565b9350505050919050565b5f5f60035f8473ffffffffffffffffffffffffffffffffffffffff1673ffffffffffffffffffffffffffffffffffffffff1681526020019081526020015f205491506109128361017a565b9050915091565b5f5ffd5b5f73ffffffffffffffffffffffffffffffffffffffff82169050919050565b5f6109468261091d565b9050919050565b6109568161093c565b8114610960575f5ffd5b50565b5f813590506109718161094d565b92915050565b5f6020828403121561098c5761098b610919565b5b5f61099984828501610963565b91505092915050565b5f819050919050565b6109b4816109a2565b82525050565b5f6020820190506109cd5f8301846109ab565b92915050565b6109dc816109a2565b81146109e6575f5ffd5b50565b5f813590506109f7816109d3565b92915050565b5f5f60408385031215610a1357610a12610919565b5b5f610a2085828601610963565b9250506020610a31858286016109e9565b9150509250929050565b5f60208284031215610a5057610a4f610919565b5b5f610a5d848285016109e9565b91505092915050565b7f4e487b71000000000000000000000000000000000000000000000000000000005f52603260045260245ffd5b7f4e487b71000000000000000000000000000000000000000000000000000000005f52601160045260245ffd5b5f610aca826109a2565b9150610ad5836109a2565b9250828201905080821115610aed57610aec610a93565b5b92915050565b610afc8161093c565b82525050565b5f602082019050610b155f830184610af3565b92915050565b5f606082019050610b2e5f830186610af3565b610b3b6020830185610af3565b610b4860408301846109ab565b949350505050565b5f8115159050919050565b610b6481610b50565b8114610b6e575f5ffd5b50565b5f81519050610b7f81610b5b565b92915050565b5f60208284031215610b9a57610b99610919565b5b5f610ba784828501610b71565b91505092915050565b5f69ffffffffffffffffffff82169050919050565b610bce81610bb0565b8114610bd8575f5ffd5b50565b5f81519050610be981610bc5565b92915050565b5f819050919050565b610c0181610bef565b8114610c0b575f5ffd5b50565b5f81519050610c1c81610bf8565b92915050565b5f81519050610c30816109d3565b92915050565b5f5f5f5f5f60a08688031215610c4f57610c4e610919565b5b5f610c5c88828901610bdb565b9550506020610c6d88828901610c0e565b9450506040610c7e88828901610c22565b9350506060610c8f88828901610c22565b9250506080610ca088828901610bdb565b9150509295509295909350565b5f610cb7826109a2565b9150610cc2836109a2565b9250828202610cd0816109a2565b91508282048414831517610ce757610ce6610a93565b5b5092915050565b7f4e487b71000000000000000000000000000000000000000000000000000000005f52601260045260245ffd5b5f610d25826109a2565b9150610d30836109a2565b925082610d4057610d3f610cee565b5b828204905092915050565b5f604082019050610d5e5f830185610af3565b610d6b60208301846109ab565b9392505050565b5f82825260208201905092915050565b7f5265656e7472616e637947756172643a207265656e7472616e742063616c6c005f82015250565b5f610db6601f83610d72565b9150610dc182610d82565b602082019050919050565b5f6020820190508181035f830152610de381610daa565b905091905056fea26469706673582212201e54bbed6b39c73e4be144a33b24d4354e9cebd4a6ad61a3dfa73885c1899a2f64736f6c634300081c0033","linkReferences":{}},"methodIdentifiers":{"burnDsc()":"ffde1fba","depositCollateral(address,uint256)":"a5d5db0c","depositCollateralAndMintDsc()":"1e2e15e4","getAccountCollateralValue(address)":"7d1a4450","getUsdValue(address,uint256)":"c660d112","healthFactor()":"22841f01","liquidate()":"28a07025","mintDsc(uint256)":"c9b7c327","redeemCollateral()":"a6534470","redeemCollateralForDsc()":"9e297554"},"id":31}