{"abi":[{"type":"constructor","inputs":[],"stateMutability":"nonpayable"},{"type":"function","name":"allowance","inputs":[{"name":"owner","type":"address","internalType":"address"},{"name":"spender","type":"address","internalType":"address"}],"outputs":[{"name":"","type":"uint256","internalType":"uint256"}],"stateMutability":"view"},{"type":"function","name":"approve","inputs":[{"name":"spender","type":"address","internalType":"address"},{"name":"amount","type":"uint256","internalType":"uint256"}],"outputs":[{"name":"","type":"bool","internalType":"bool"}],"stateMutability":"nonpayable"},{"type":"function","name":"balanceOf","inputs":[{"name":"account","type":"address","internalType":"address"}],"outputs":[{"name":"","type":"uint256","internalType":"uint256"}],"stateMutability":"view"},{"type":"function","name":"burn","inputs":[{"name":"_amount","type":"uint256","internalType":"uint256"}],"outputs":[],"stateMutability":"nonpayable"},{"type":"function","name":"burnFrom","inputs":[{"name":"account","type":"address","internalType":"address"},{"name":"amount","type":"uint256","internalType":"uint256"}],"outputs":[],"stateMutability":"nonpayable"},{"type":"function","name":"decimals","inputs":[],"outputs":[{"name":"","type":"uint8","internalType":"uint8"}],"stateMutability":"view"},{"type":"function","name":"decreaseAllowance","inputs":[{"name":"spender","type":"address","internalType":"address"},{"name":"subtractedValue","type":"uint256","internalType":"uint256"}],"outputs":[{"name":"","type":"bool","internalType":"bool"}],"stateMutability":"nonpayable"},{"type":"function","name":"increaseAllowance","inputs":[{"name":"spender","type":"address","internalType":"address"},{"name":"addedValue","type":"uint256","internalType":"uint256"}],"outputs":[{"name":"","type":"bool","internalType":"bool"}],"stateMutability":"nonpayable"},{"type":"function","name":"mint","inputs":[{"name":"_to","type":"address","internalType":"address"},{"name":"_amount","type":"uint256","internalType":"uint256"}],"outputs":[{"name":"","type":"bool","internalType":"bool"}],"stateMutability":"nonpayable"},{"type":"function","name":"name","inputs":[],"outputs":[{"name":"","type":"string","internalType":"string"}],"stateMutability":"view"},{"type":"function","name":"owner","inputs":[],"outputs":[{"name":"","type":"address","internalType":"address"}],"stateMutability":"view"},{"type":"function","name":"renounceOwnership","inputs":[],"outputs":[],"stateMutability":"nonpayable"},{"type":"function","name":"symbol","inputs":[],"outputs":[{"name":"","type":"string","internalType":"string"}],"stateMutability":"view"},{"type":"function","name":"totalSupply","inputs":[],"outputs":[{"name":"","type":"uint256","internalType":"uint256"}],"stateMutability":"view"},{"type":"function","name":"transfer","inputs":[{"name":"to","type":"address","internalType":"address"},{"name":"amount","type":"uint256","internalType":"uint256"}],"outputs":[{"name":"","type":"bool","internalType":"bool"}],"stateMutability":"nonpayable"},{"type":"function","name":"transferFrom","inputs":[{"name":"from","type":"address","internalType":"address"},{"name":"to","type":"address","internalType":"address"},{"name":"amount","type":"uint256","internalType":"uint256"}],"outputs":[{"name":"","type":"bool","internalType":"bool"}],"stateMutability":"nonpayable"},{"type":"function","name":"transferOwnership","inputs":[{"name":"newOwner","type":"address","internalType":"address"}],"outputs":[],"stateMutability":"nonpayable"},{"type":"event","name":"Approval","inputs":[{"name":"owner","type":"address","indexed":true,"internalType":"address"},{"name":"spender","type":"address","indexed":true,"internalType":"address"},{"name":"value","type":"uint256","indexed":false,"internalType":"uint256"}],"anonymous":false},{"type":"event","name":"OwnershipTransferred","inputs":[{"name":"previousOwner","type":"address","indexed":true,"internalType":"address"},{"name":"newOwner","type":"address","indexed":true,"internalType":"address"}],"anonymous":false},{"type":"event","name":"Transfer","inputs":[{"name":"from","type":"address","indexed":true,"internalType":"address"},{"name":"to","type":"address","indexed":true,"internalType":"address"},{"name":"value","type":"uint256","indexed":false,"internalType":"uint256"}],"anonymous":false},{"type":"error","name":"DecentralizedStableCoin__BurnAmountExceedsBalance","inputs":[]},{"type":"error","name":"DecentralizedStableCoin__MustBeMoreThanZero","inputs":[]},{"type":"error","name":"DecentralizedStableCoin__NotZeroAddress","inputs":[]}],"bytecode":{"object":"0x608060405234801561000f575f5ffd5b506040518060400160405280601781526020017f446563656e7472616c697a6564537461626c65436f696e0000000000000000008152506040518060400160405280600381526020017f4453430000000000000000000000000000000000000000000000000000000000815250816003908161008b91906103c6565b50806004908161009b91906103c6565b5050506100ba6100af6100bf60201b60201c565b6100c660201b60201c565b610495565b5f33905090565b5f60055f9054906101000a900473ffffffffffffffffffffffffffffffffffffffff1690508160055f6101000a81548173ffffffffffffffffffffffffffffffffffffffff021916908373ffffffffffffffffffffffffffffffffffffffff1602179055508173ffffffffffffffffffffffffffffffffffffffff168173ffffffffffffffffffffffffffffffffffffffff167f8be0079c531659141344cd1fd0a4f28419497f9722a3daafe3b4186f6b6457e060405160405180910390a35050565b5f81519050919050565b7f4e487b71000000000000000000000000000000000000000000000000000000005f52604160045260245ffd5b7f4e487b71000000000000000000000000000000000000000000000000000000005f52602260045260245ffd5b5f600282049050600182168061020457607f821691505b602082108103610217576102166101c0565b5b50919050565b5f819050815f5260205f209050919050565b5f6020601f8301049050919050565b5f82821b905092915050565b5f600883026102797fffffffffffffffffffffffffffffffffffffffffffffffffffffffffffffffff8261023e565b610283868361023e565b95508019841693508086168417925050509392505050565b5f819050919050565b5f819050919050565b5f6102c76102c26102bd8461029b565b6102a4565b61029b565b9050919050565b5f819050919050565b6102e0836102ad565b6102f46102ec826102ce565b84845461024a565b825550505050565b5f5f905090565b61030b6102fc565b6103168184846102d7565b505050565b5b818110156103395761032e5f82610303565b60018101905061031c565b5050565b601f82111561037e5761034f8161021d565b6103588461022f565b81016020851015610367578190505b61037b6103738561022f565b83018261031b565b50505b505050565b5f82821c905092915050565b5f61039e5f1984600802610383565b1980831691505092915050565b5f6103b6838361038f565b9150826002028217905092915050565b6103cf82610189565b67ffffffffffffffff8111156103e8576103e7610193565b5b6103f282546101ed565b6103fd82828561033d565b5f60209050601f83116001811461042e575f841561041c578287015190505b61042685826103ab565b86555061048d565b601f19841661043c8661021d565b5f5b828110156104635784890151825560018201915060208501945060208101905061043e565b86831015610480578489015161047c601f89168261038f565b8355505b6001600288020188555050505b505050505050565b611c16806104a25f395ff3fe608060405234801561000f575f5ffd5b5060043610610109575f3560e01c806370a08231116100a057806395d89b411161006f57806395d89b41146102b7578063a457c2d7146102d5578063a9059cbb14610305578063dd62ed3e14610335578063f2fde38b1461036557610109565b806370a0823114610243578063715018a61461027357806379cc67901461027d5780638da5cb5b1461029957610109565b8063313ce567116100dc578063313ce567146101a957806339509351146101c757806340c10f19146101f757806342966c681461022757610109565b806306fdde031461010d578063095ea7b31461012b57806318160ddd1461015b57806323b872dd14610179575b5f5ffd5b610115610381565b6040516101229190611263565b60405180910390f35b61014560048036038101906101409190611314565b610411565b604051610152919061136c565b60405180910390f35b610163610433565b6040516101709190611394565b60405180910390f35b610193600480360381019061018e91906113ad565b61043c565b6040516101a0919061136c565b60405180910390f35b6101b161046a565b6040516101be9190611418565b60405180910390f35b6101e160048036038101906101dc9190611314565b610472565b6040516101ee919061136c565b60405180910390f35b610211600480360381019061020c9190611314565b6104a8565b60405161021e919061136c565b60405180910390f35b610241600480360381019061023c9190611431565b610563565b005b61025d6004803603810190610258919061145c565b6105f7565b60405161026a9190611394565b60405180910390f35b61027b61063c565b005b61029760048036038101906102929190611314565b61064f565b005b6102a161066f565b6040516102ae9190611496565b60405180910390f35b6102bf610697565b6040516102cc9190611263565b60405180910390f35b6102ef60048036038101906102ea9190611314565b610727565b6040516102fc919061136c565b60405180910390f35b61031f600480360381019061031a9190611314565b61079c565b60405161032c919061136c565b60405180910390f35b61034f600480360381019061034a91906114af565b6107be565b60405161035c9190611394565b60405180910390f35b61037f600480360381019061037a919061145c565b610840565b005b6060600380546103909061151a565b80601f01602080910402602001604051908101604052809291908181526020018280546103bc9061151a565b80156104075780601f106103de57610100808354040283529160200191610407565b820191905f5260205f20905b8154815290600101906020018083116103ea57829003601f168201915b5050505050905090565b5f5f61041b6108c2565b90506104288185856108c9565b600191505092915050565b5f600254905090565b5f5f6104466108c2565b9050610453858285610a8c565b61045e858585610b17565b60019150509392505050565b5f6012905090565b5f5f61047c6108c2565b905061049d81858561048e85896107be565b6104989190611577565b6108c9565b600191505092915050565b5f6104b1610d83565b5f73ffffffffffffffffffffffffffffffffffffffff168373ffffffffffffffffffffffffffffffffffffffff1603610516576040517ff3c190e900000000000000000000000000000000000000000000000000000000815260040160405180910390fd5b5f821161054f576040517f6ac49da200000000000000000000000000000000000000000000000000000000815260040160405180910390fd5b6105598383610e01565b6001905092915050565b61056b610d83565b5f610575336105f7565b90505f82116105b0576040517f6ac49da200000000000000000000000000000000000000000000000000000000815260040160405180910390fd5b818110156105ea576040517ffe9c6abb00000000000000000000000000000000000000000000000000000000815260040160405180910390fd5b6105f382610f4f565b5050565b5f5f5f8373ffffffffffffffffffffffffffffffffffffffff1673ffffffffffffffffffffffffffffffffffffffff1681526020019081526020015f20549050919050565b610644610d83565b61064d5f610f63565b565b6106618261065b6108c2565b83610a8c565b61066b8282611026565b5050565b5f60055f9054906101000a900473ffffffffffffffffffffffffffffffffffffffff16905090565b6060600480546106a69061151a565b80601f01602080910402602001604051908101604052809291908181526020018280546106d29061151a565b801561071d5780601f106106f45761010080835404028352916020019161071d565b820191905f5260205f20905b81548152906001019060200180831161070057829003601f168201915b5050505050905090565b5f5f6107316108c2565b90505f61073e82866107be565b905083811015610783576040517f08c379a000000000000000000000000000000000000000000000000000000000815260040161077a9061161a565b60405180910390fd5b61079082868684036108c9565b60019250505092915050565b5f5f6107a66108c2565b90506107b3818585610b17565b600191505092915050565b5f60015f8473ffffffffffffffffffffffffffffffffffffffff1673ffffffffffffffffffffffffffffffffffffffff1681526020019081526020015f205f8373ffffffffffffffffffffffffffffffffffffffff1673ffffffffffffffffffffffffffffffffffffffff1681526020019081526020015f2054905092915050565b610848610d83565b5f73ffffffffffffffffffffffffffffffffffffffff168173ffffffffffffffffffffffffffffffffffffffff16036108b6576040517f08c379a00000000000000000000000000000000000000000000000000000000081526004016108ad906116a8565b60405180910390fd5b6108bf81610f63565b50565b5f33905090565b5f73ffffffffffffffffffffffffffffffffffffffff168373ffffffffffffffffffffffffffffffffffffffff1603610937576040517f08c379a000000000000000000000000000000000000000000000000000000000815260040161092e90611736565b60405180910390fd5b5f73ffffffffffffffffffffffffffffffffffffffff168273ffffffffffffffffffffffffffffffffffffffff16036109a5576040517f08c379a000000000000000000000000000000000000000000000000000000000815260040161099c906117c4565b60405180910390fd5b8060015f8573ffffffffffffffffffffffffffffffffffffffff1673ffffffffffffffffffffffffffffffffffffffff1681526020019081526020015f205f8473ffffffffffffffffffffffffffffffffffffffff1673ffffffffffffffffffffffffffffffffffffffff1681526020019081526020015f20819055508173ffffffffffffffffffffffffffffffffffffffff168373ffffffffffffffffffffffffffffffffffffffff167f8c5be1e5ebec7d5bd14f71427d1e84f3dd0314c0f7b2291e5b200ac8c7c3b92583604051610a7f9190611394565b60405180910390a3505050565b5f610a9784846107be565b90507fffffffffffffffffffffffffffffffffffffffffffffffffffffffffffffffff8114610b115781811015610b03576040517f08c379a0000000000000000000000000000000000000000000000000000000008152600401610afa9061182c565b60405180910390fd5b610b1084848484036108c9565b5b50505050565b5f73ffffffffffffffffffffffffffffffffffffffff168373ffffffffffffffffffffffffffffffffffffffff1603610b85576040517f08c379a0000000000000000000000000000000000000000000000000000000008152600401610b7c906118ba565b60405180910390fd5b5f73ffffffffffffffffffffffffffffffffffffffff168273ffffffffffffffffffffffffffffffffffffffff1603610bf3576040517f08c379a0000000000000000000000000000000000000000000000000000000008152600401610bea90611948565b60405180910390fd5b610bfe8383836111e9565b5f5f5f8573ffffffffffffffffffffffffffffffffffffffff1673ffffffffffffffffffffffffffffffffffffffff1681526020019081526020015f2054905081811015610c81576040517f08c379a0000000000000000000000000000000000000000000000000000000008152600401610c78906119d6565b60405180910390fd5b8181035f5f8673ffffffffffffffffffffffffffffffffffffffff1673ffffffffffffffffffffffffffffffffffffffff1681526020019081526020015f2081905550815f5f8573ffffffffffffffffffffffffffffffffffffffff1673ffffffffffffffffffffffffffffffffffffffff1681526020019081526020015f205f82825401925050819055508273ffffffffffffffffffffffffffffffffffffffff168473ffffffffffffffffffffffffffffffffffffffff167fddf252ad1be2c89b69c2b068fc378daa952ba7f163c4a11628f55a4df523b3ef84604051610d6a9190611394565b60405180910390a3610d7d8484846111ee565b50505050565b610d8b6108c2565b73ffffffffffffffffffffffffffffffffffffffff16610da961066f565b73ffffffffffffffffffffffffffffffffffffffff1614610dff576040517f08c379a0000000000000000000000000000000000000000000000000000000008152600401610df690611a3e565b60405180910390fd5b565b5f73ffffffffffffffffffffffffffffffffffffffff168273ffffffffffffffffffffffffffffffffffffffff1603610e6f576040517f08c379a0000000000000000000000000000000000000000000000000000000008152600401610e6690611aa6565b60405180910390fd5b610e7a5f83836111e9565b8060025f828254610e8b9190611577565b92505081905550805f5f8473ffffffffffffffffffffffffffffffffffffffff1673ffffffffffffffffffffffffffffffffffffffff1681526020019081526020015f205f82825401925050819055508173ffffffffffffffffffffffffffffffffffffffff165f73ffffffffffffffffffffffffffffffffffffffff167fddf252ad1be2c89b69c2b068fc378daa952ba7f163c4a11628f55a4df523b3ef83604051610f389190611394565b60405180910390a3610f4b5f83836111ee565b5050565b610f60610f5a6108c2565b82611026565b50565b5f60055f9054906101000a900473ffffffffffffffffffffffffffffffffffffffff1690508160055f6101000a81548173ffffffffffffffffffffffffffffffffffffffff021916908373ffffffffffffffffffffffffffffffffffffffff1602179055508173ffffffffffffffffffffffffffffffffffffffff168173ffffffffffffffffffffffffffffffffffffffff167f8be0079c531659141344cd1fd0a4f28419497f9722a3daafe3b4186f6b6457e060405160405180910390a35050565b5f73ffffffffffffffffffffffffffffffffffffffff168273ffffffffffffffffffffffffffffffffffffffff1603611094576040517f08c379a000000000000000000000000000000000000000000000000000000000815260040161108b90611b34565b60405180910390fd5b61109f825f836111e9565b5f5f5f8473ffffffffffffffffffffffffffffffffffffffff1673ffffffffffffffffffffffffffffffffffffffff1681526020019081526020015f2054905081811015611122576040517f08c379a000000000000000000000000000000000000000000000000000000000815260040161111990611bc2565b60405180910390fd5b8181035f5f8573ffffffffffffffffffffffffffffffffffffffff1673ffffffffffffffffffffffffffffffffffffffff1681526020019081526020015f20819055508160025f82825403925050819055505f73ffffffffffffffffffffffffffffffffffffffff168373ffffffffffffffffffffffffffffffffffffffff167fddf252ad1be2c89b69c2b068fc378daa952ba7f163c4a11628f55a4df523b3ef846040516111d19190611394565b60405180910390a36111e4835f846111ee565b505050565b505050565b505050565b5f81519050919050565b5f82825260208201905092915050565b8281835e5f83830152505050565b5f601f19601f8301169050919050565b5f611235826111f3565b61123f81856111fd565b935061124f81856020860161120d565b6112588161121b565b840191505092915050565b5f6020820190508181035f83015261127b818461122b565b905092915050565b5f5ffd5b5f73ffffffffffffffffffffffffffffffffffffffff82169050919050565b5f6112b082611287565b9050919050565b6112c0816112a6565b81146112ca575f5ffd5b50565b5f813590506112db816112b7565b92915050565b5f819050919050565b6112f3816112e1565b81146112fd575f5ffd5b50565b5f8135905061130e816112ea565b92915050565b5f5f6040838503121561132a57611329611283565b5b5f611337858286016112cd565b925050602061134885828601611300565b9150509250929050565b5f8115159050919050565b61136681611352565b82525050565b5f60208201905061137f5f83018461135d565b92915050565b61138e816112e1565b82525050565b5f6020820190506113a75f830184611385565b92915050565b5f5f5f606084860312156113c4576113c3611283565b5b5f6113d1868287016112cd565b93505060206113e2868287016112cd565b92505060406113f386828701611300565b9150509250925092565b5f60ff82169050919050565b611412816113fd565b82525050565b5f60208201905061142b5f830184611409565b92915050565b5f6020828403121561144657611445611283565b5b5f61145384828501611300565b91505092915050565b5f6020828403121561147157611470611283565b5b5f61147e848285016112cd565b91505092915050565b611490816112a6565b82525050565b5f6020820190506114a95f830184611487565b92915050565b5f5f604083850312156114c5576114c4611283565b5b5f6114d2858286016112cd565b92505060206114e3858286016112cd565b9150509250929050565b7f4e487b71000000000000000000000000000000000000000000000000000000005f52602260045260245ffd5b5f600282049050600182168061153157607f821691505b602082108103611544576115436114ed565b5b50919050565b7f4e487b71000000000000000000000000000000000000000000000000000000005f52601160045260245ffd5b5f611581826112e1565b915061158c836112e1565b92508282019050808211156115a4576115a361154a565b5b92915050565b7f45524332303a2064656372656173656420616c6c6f77616e63652062656c6f775f8201527f207a65726f000000000000000000000000000000000000000000000000000000602082015250565b5f6116046025836111fd565b915061160f826115aa565b604082019050919050565b5f6020820190508181035f830152611631816115f8565b9050919050565b7f4f776e61626c653a206e6577206f776e657220697320746865207a65726f20615f8201527f6464726573730000000000000000000000000000000000000000000000000000602082015250565b5f6116926026836111fd565b915061169d82611638565b604082019050919050565b5f6020820190508181035f8301526116bf81611686565b9050919050565b7f45524332303a20617070726f76652066726f6d20746865207a65726f206164645f8201527f7265737300000000000000000000000000000000000000000000000000000000602082015250565b5f6117206024836111fd565b915061172b826116c6565b604082019050919050565b5f6020820190508181035f83015261174d81611714565b9050919050565b7f45524332303a20617070726f766520746f20746865207a65726f2061646472655f8201527f7373000000000000000000000000000000000000000000000000000000000000602082015250565b5f6117ae6022836111fd565b91506117b982611754565b604082019050919050565b5f6020820190508181035f8301526117db816117a2565b9050919050565b7f45524332303a20696e73756666696369656e7420616c6c6f77616e63650000005f82015250565b5f611816601d836111fd565b9150611821826117e2565b602082019050919050565b5f6020820190508181035f8301526118438161180a565b9050919050565b7f45524332303a207472616e736665722066726f6d20746865207a65726f2061645f8201527f6472657373000000000000000000000000000000000000000000000000000000602082015250565b5f6118a46025836111fd565b91506118af8261184a565b604082019050919050565b5f6020820190508181035f8301526118d181611898565b9050919050565b7f45524332303a207472616e7366657220746f20746865207a65726f20616464725f8201527f6573730000000000000000000000000000000000000000000000000000000000602082015250565b5f6119326023836111fd565b915061193d826118d8565b604082019050919050565b5f6020820190508181035f83015261195f81611926565b9050919050565b7f45524332303a207472616e7366657220616d6f756e74206578636565647320625f8201527f616c616e63650000000000000000000000000000000000000000000000000000602082015250565b5f6119c06026836111fd565b91506119cb82611966565b604082019050919050565b5f6020820190508181035f8301526119ed816119b4565b9050919050565b7f4f776e61626c653a2063616c6c6572206973206e6f7420746865206f776e65725f82015250565b5f611a286020836111fd565b9150611a33826119f4565b602082019050919050565b5f6020820190508181035f830152611a5581611a1c565b9050919050565b7f45524332303a206d696e7420746f20746865207a65726f2061646472657373005f82015250565b5f611a90601f836111fd565b9150611a9b82611a5c565b602082019050919050565b5f6020820190508181035f830152611abd81611a84565b9050919050565b7f45524332303a206275726e2066726f6d20746865207a65726f206164647265735f8201527f7300000000000000000000000000000000000000000000000000000000000000602082015250565b5f611b1e6021836111fd565b9150611b2982611ac4565b604082019050919050565b5f6020820190508181035f830152611b4b81611b12565b9050919050565b7f45524332303a206275726e20616d6f756e7420657863656564732062616c616e5f8201527f6365000000000000000000000000000000000000000000000000000000000000602082015250565b5f611bac6022836111fd565b9150611bb782611b52565b604082019050919050565b5f6020820190508181035f830152611bd981611ba0565b905091905056fea26469706673582212200d1cc1a8aeaef30b5ac1a8c136783c8b9b23d4c763a3c08ef2bd34fedb4e93ec64736f6c634300081c0033","linkReferences":{}},"methodIdentifiers":{"allowance(address,address)":"dd62ed3e","approve(address,uint256)":"095ea7b3","balanceOf(address)":"70a08231","burn(uint256)":"42966c68","burnFrom(address,uint256)":"79cc6790","decimals()":"313ce567","decreaseAllowance(address,uint256)":"a457c2d7","increaseAllowance(address,uint256)":"39509351","mint(address,uint256)":"40c10f19","name()":"06fdde03","owner()":"8da5cb5b","renounceOwnership()":"715018a6","symbol()":"95d89b41","totalSupply()":"18160ddd","transfer(address,uint256)":"a9059cbb","transferFrom(address,address,uint256)":"23b872dd","transferOwnership(address)":"f2fde38b"},"id":32}